{"abi":[{"type":"constructor","inputs":[{"name":"priceFeed","type":"address","internalType":"address"}],"stateMutability":"nonpayable"},{"type":"function","name":"addItem","inputs":[{"name":"itemName","type":"string","internalType":"string"},{"name":"itemPriceInUSD","type":"uint256","internalType":"uint256"},{"name":"itemDescription","type":"string","internalType":"string"},{"name":"itemQuantity","type":"uint256","internalType":"uint256"},{"name":"sellerID","type":"uint256","internalType":"uint256"}],"outputs":[],"stateMutability":"nonpayable"},{"type":"function","name":"addNewMarketAuthority","inputs":[{"name":"_newMarketAuthorityAddress","type":"address","internalType":"address"}],"outputs":[],"stateMutability":"nonpayable"},{"type":"function","name":"buyItem","inputs":[{"name":"itemName","type":"string","internalType":"string"},{"name":"sellerID","type":"uint256","internalType":"uint256"}],"outputs":[],"stateMutability":"payable"},{"type":"function","name":"deleteItem","inputs":[{"name":"sellerID","type":"uint256","internalType":"uint256"},{"name":"itemName","type":"string","internalType":"string"}],"outputs":[],"stateMutability":"nonpayable"},{"type":"function","name":"doesItemBelongToSeller","inputs":[{"name":"sellerId","type":"uint256","internalType":"uint256"},{"name":"itemName","type":"string","internalType":"string"}],"outputs":[{"name":"","type":"tuple","internalType":"struct Decentralized_Market.Item","components":[{"name":"itemName","type":"string","internalType":"string"},{"name":"itemPrice","type":"uint256","internalType":"uint256"},{"name":"itemDescription","type":"string","internalType":"string"},{"name":"itemQuantity","type":"uint256","internalType":"uint256"},{"name":"sellerID","type":"uint256","internalType":"uint256"},{"name":"sellerAddress","type":"address","internalType":"address payable"}]}],"stateMutability":"view"},{"type":"function","name":"doesSellerHaveID","inputs":[{"name":"sellerAddress","type":"address","internalType":"address"}],"outputs":[{"name":"","type":"uint256","internalType":"uint256"}],"stateMutability":"view"},{"type":"function","name":"getAddressesPendingVerification","inputs":[],"outputs":[{"name":"","type":"address[]","internalType":"address[]"}],"stateMutability":"view"},{"type":"function","name":"getAllItems","inputs":[],"outputs":[{"name":"","type":"tuple[]","internalType":"struct Decentralized_Market.Item[]","components":[{"name":"itemName","type":"string","internalType":"string"},{"name":"itemPrice","type":"uint256","internalType":"uint256"},{"name":"itemDescription","type":"string","internalType":"string"},{"name":"itemQuantity","type":"uint256","internalType":"uint256"},{"name":"sellerID","type":"uint256","internalType":"uint256"},{"name":"sellerAddress","type":"address","internalType":"address payable"}]}],"stateMutability":"view"},{"type":"function","name":"getCurrentMarketAuthority","inputs":[],"outputs":[{"name":"","type":"address","internalType":"address"}],"stateMutability":"view"},{"type":"function","name":"getItemByIndex","inputs":[{"name":"index","type":"uint256","internalType":"uint256"}],"outputs":[{"name":"","type":"tuple","internalType":"struct Decentralized_Market.Item","components":[{"name":"itemName","type":"string","internalType":"string"},{"name":"itemPrice","type":"uint256","internalType":"uint256"},{"name":"itemDescription","type":"string","internalType":"string"},{"name":"itemQuantity","type":"uint256","internalType":"uint256"},{"name":"sellerID","type":"uint256","internalType":"uint256"},{"name":"sellerAddress","type":"address","internalType":"address payable"}]}],"stateMutability":"view"},{"type":"function","name":"getItemPrice","inputs":[{"name":"sellerID","type":"uint256","internalType":"uint256"},{"name":"itemName","type":"string","internalType":"string"}],"outputs":[{"name":"","type":"uint256","internalType":"uint256"}],"stateMutability":"view"},{"type":"function","name":"getItemsByName","inputs":[{"name":"_itemName","type":"string","internalType":"string"}],"outputs":[{"name":"","type":"tuple[]","internalType":"struct Decentralized_Market.Item[]","components":[{"name":"itemName","type":"string","internalType":"string"},{"name":"itemPrice","type":"uint256","internalType":"uint256"},{"name":"itemDescription","type":"string","internalType":"string"},{"name":"itemQuantity","type":"uint256","internalType":"uint256"},{"name":"sellerID","type":"uint256","internalType":"uint256"},{"name":"sellerAddress","type":"address","internalType":"address payable"}]}],"stateMutability":"view"},{"type":"function","name":"getSellerBalance","inputs":[],"outputs":[{"name":"","type":"uint256","internalType":"uint256"}],"stateMutability":"view"},{"type":"function","name":"getSellersItem","inputs":[{"name":"sellerAddress","type":"address","internalType":"address"}],"outputs":[{"name":"","type":"tuple","internalType":"struct Decentralized_Market.Item","components":[{"name":"itemName","type":"string","internalType":"string"},{"name":"itemPrice","type":"uint256","internalType":"uint256"},{"name":"itemDescription","type":"string","internalType":"string"},{"name":"itemQuantity","type":"uint256","internalType":"uint256"},{"name":"sellerID","type":"uint256","internalType":"uint256"},{"name":"sellerAddress","type":"address","internalType":"address payable"}]}],"stateMutability":"view"},{"type":"function","name":"getSellersToBeVerified","inputs":[],"outputs":[{"name":"","type":"address[]","internalType":"address[]"}],"stateMutability":"view"},{"type":"function","name":"isAddressMarketAuthority","inputs":[{"name":"marketAuthority","type":"address","internalType":"address"}],"outputs":[{"name":"","type":"bool","internalType":"bool"}],"stateMutability":"view"},{"type":"function","name":"isItemAvailable","inputs":[{"name":"itemName","type":"string","internalType":"string"}],"outputs":[{"name":"","type":"tuple[]","internalType":"struct Decentralized_Market.Item[]","components":[{"name":"itemName","type":"string","internalType":"string"},{"name":"itemPrice","type":"uint256","internalType":"uint256"},{"name":"itemDescription","type":"string","internalType":"string"},{"name":"itemQuantity","type":"uint256","internalType":"uint256"},{"name":"sellerID","type":"uint256","internalType":"uint256"},{"name":"sellerAddress","type":"address","internalType":"address payable"}]}],"stateMutability":"view"},{"type":"function","name":"isSellerVerified","inputs":[{"name":"sellerAddress","type":"address","internalType":"address"}],"outputs":[{"name":"","type":"bool","internalType":"bool"}],"stateMutability":"view"},{"type":"function","name":"submitSellerAddress","inputs":[],"outputs":[],"stateMutability":"nonpayable"},{"type":"function","name":"transferMarketAuthority","inputs":[{"name":"_newMarketAuthorityAddress","type":"address","internalType":"address"}],"outputs":[],"stateMutability":"nonpayable"},{"type":"function","name":"verifySellerAddress","inputs":[{"name":"sellerAddress","type":"address","internalType":"address payable"}],"outputs":[],"stateMutability":"nonpayable"},{"type":"function","name":"withdrawBalance","inputs":[],"outputs":[],"stateMutability":"payable"},{"type":"event","name":"FormerMarketAuthorityDeleted","inputs":[{"name":"formerMarketAuthority","type":"address","indexed":true,"internalType":"address"}],"anonymous":false},{"type":"event","name":"ItemAdded","inputs":[{"name":"Seller","type":"address","indexed":true,"internalType":"address"},{"name":"sellerID","type":"uint256","indexed":false,"internalType":"uint256"},{"name":"","type":"tuple","indexed":false,"internalType":"struct Decentralized_Market.Item","components":[{"name":"itemName","type":"string","internalType":"string"},{"name":"itemPrice","type":"uint256","internalType":"uint256"},{"name":"itemDescription","type":"string","internalType":"string"},{"name":"itemQuantity","type":"uint256","internalType":"uint256"},{"name":"sellerID","type":"uint256","internalType":"uint256"},{"name":"sellerAddress","type":"address","internalType":"address payable"}]}],"anonymous":false},{"type":"event","name":"ItemDeleted","inputs":[{"name":"sellerID","type":"uint256","indexed":false,"internalType":"uint256"},{"name":"itemName","type":"string","indexed":false,"internalType":"string"}],"anonymous":false},{"type":"event","name":"ItemPurchased","inputs":[{"name":"Buyer","type":"address","indexed":true,"internalType":"address"},{"name":"itemName","type":"string","indexed":false,"internalType":"string"},{"name":"sellerID","type":"uint256","indexed":false,"internalType":"uint256"},{"name":"itemPrice","type":"uint256","indexed":false,"internalType":"uint256"}],"anonymous":false},{"type":"event","name":"MarketAuthorityTransferred","inputs":[{"name":"transferredFrom","type":"address","indexed":true,"internalType":"address"},{"name":"transferredTo","type":"address","indexed":true,"internalType":"address"}],"anonymous":false},{"type":"event","name":"NewMarketAuthorityAdded","inputs":[{"name":"addedBy","type":"address","indexed":true,"internalType":"address"},{"name":"_newMarketAuthorityAddress","type":"address","indexed":true,"internalType":"address"}],"anonymous":false},{"type":"event","name":"SellerAddressSubmitted","inputs":[{"name":"sellerAddress","type":"address","indexed":true,"internalType":"address"}],"anonymous":false},{"type":"event","name":"SellerVerified","inputs":[{"name":"sellerAddress","type":"address","indexed":true,"internalType":"address"},{"name":"sellerID","type":"uint256","indexed":false,"internalType":"uint256"}],"anonymous":false},{"type":"error","name":"Insufficient_Amount","inputs":[]},{"type":"error","name":"Invalid_Item","inputs":[]},{"type":"error","name":"Invalid_SellerID","inputs":[]},{"type":"error","name":"Invalid_SellerID_Or_Invalid_Item","inputs":[]},{"type":"error","name":"Item_Already_Exist","inputs":[]},{"type":"error","name":"Item_Out_Of_Stock","inputs":[]},{"type":"error","name":"Market_Authorities_Not_Allowed","inputs":[]},{"type":"error","name":"No_balance_to_withdraw","inputs":[]},{"type":"error","name":"Not_Market_Authority","inputs":[]},{"type":"error","name":"Not_Seller","inputs":[]},{"type":"error","name":"Seller_Address_Already_Submitted","inputs":[]},{"type":"error","name":"Seller_Has_ID","inputs":[]}],"bytecode":{"object":"0x608060405260016002553480156200001657600080fd5b5060405162002c3a38038062002c3a833981016040819052620000399162000084565b60008054336001600160a01b031991821681178355825260096020526040909120805460ff19166001179055600480549091166001600160a01b0392909216919091179055620000b6565b6000602082840312156200009757600080fd5b81516001600160a01b0381168114620000af57600080fd5b9392505050565b612b7480620000c66000396000f3fe6080604052600436106101355760003560e01c80638dd7f90c116100ab5780639f3efdf61161006f5780639f3efdf614610381578063bb333ed2146101bf578063e24cad53146103a1578063ec0ecfd8146103c9578063f06e0269146103e9578063fc325efd1461040957600080fd5b80638dd7f90c146102d357806393fc41a11461030c57806394b188751461032157806394bbc030146103415780639c1ce6a21461036157600080fd5b80634ba1d6aa116100fd5780634ba1d6aa1461022a5780635339fa161461023f5780635fd8c7101461025f578063687a809e146102675780637a9dae96146102ab578063891a2f31146102c057600080fd5b80630e2770031461013a5780631d38dfa01461015c5780632a7a0fac1461019257806332b695c9146101bf578063377c460d146101e1575b600080fd5b34801561014657600080fd5b5061015a6101553660046123f4565b610429565b005b34801561016857600080fd5b5061017c6101773660046124bb565b6104f7565b60405161018991906125b3565b60405180910390f35b34801561019e57600080fd5b506101b26101ad3660046123f4565b6106cf565b6040516101899190612615565b3480156101cb57600080fd5b506101d4610855565b6040516101899190612628565b3480156101ed57600080fd5b5061021a6101fc3660046123f4565b6001600160a01b031660009081526005602052604090205460ff1690565b6040519015158152602001610189565b34801561023657600080fd5b5061017c6108e8565b34801561024b57600080fd5b5061015a61025a366004612675565b610c76565b61015a610fce565b34801561027357600080fd5b5061029d6102823660046123f4565b6001600160a01b031660009081526008602052604090205490565b604051908152602001610189565b3480156102b757600080fd5b5061029d6110cb565b61015a6102ce3660046126bc565b61110e565b3480156102df57600080fd5b5061021a6102ee3660046123f4565b6001600160a01b031660009081526009602052604090205460ff1690565b34801561031857600080fd5b5061015a6113ec565b34801561032d57600080fd5b5061029d61033c366004612675565b611529565b34801561034d57600080fd5b5061015a61035c366004612701565b611565565b34801561036d57600080fd5b5061015a61037c3660046123f4565b61187c565b34801561038d57600080fd5b5061017c61039c3660046124bb565b6118f9565b3480156103ad57600080fd5b506000546040516001600160a01b039091168152602001610189565b3480156103d557600080fd5b5061015a6103e43660046123f4565b611c4a565b3480156103f557600080fd5b506101b2610404366004612675565b611f1c565b34801561041557600080fd5b506101b2610424366004612780565b6120b7565b3360009081526009602052604090205460ff1661045957604051637490583d60e11b815260040160405180910390fd5b600080546001600160a01b0319166001600160a01b038316908117825580825260096020526040808320805460ff1916600117905551909133917f45d40c5b0744a0416010da361e8d390ec9fa7cc857a6d6a7eb76542d97dd11cb9190a333600081815260096020526040808220805460ff19169055517f10bb2bb94bcaf23e23658fa243d9a48ac9c37c0d66fa3918326d4995bdb773299190a250565b60606006826040516105099190612799565b9081526020016040518091039020805480602002602001604051908101604052809291908181526020016000905b828210156106c457838290600052602060002090600602016040518060c001604052908160008201805461056a906127b5565b80601f0160208091040260200160405190810160405280929190818152602001828054610596906127b5565b80156105e35780601f106105b8576101008083540402835291602001916105e3565b820191906000526020600020905b8154815290600101906020018083116105c657829003601f168201915b5050505050815260200160018201548152602001600282018054610606906127b5565b80601f0160208091040260200160405190810160405280929190818152602001828054610632906127b5565b801561067f5780601f106106545761010080835404028352916020019161067f565b820191906000526020600020905b81548152906001019060200180831161066257829003601f168201915b50505091835250506003820154602080830191909152600483015460408301526005909201546001600160a01b03166060909101529082526001929092019101610537565b505050509050919050565b6106d761221f565b6001600160a01b0382166000908152600b602052604090819020815160c08101909252805482908290610709906127b5565b80601f0160208091040260200160405190810160405280929190818152602001828054610735906127b5565b80156107825780601f1061075757610100808354040283529160200191610782565b820191906000526020600020905b81548152906001019060200180831161076557829003601f168201915b50505050508152602001600182015481526020016002820180546107a5906127b5565b80601f01602080910402602001604051908101604052809291908181526020018280546107d1906127b5565b801561081e5780601f106107f35761010080835404028352916020019161081e565b820191906000526020600020905b81548152906001019060200180831161080157829003601f168201915b505050918352505060038201546020820152600482015460408201526005909101546001600160a01b031660609091015292915050565b3360009081526009602052604090205460609060ff1661088857604051637490583d60e11b815260040160405180910390fd5b60018054806020026020016040519081016040528092919081815260200182805480156108de57602002820191906000526020600020905b81546001600160a01b031681526001909101906020018083116108c0575b5050505050905090565b600380546060916000918291829060079082908185610909576109096127ef565b90600052602060002090600602016004015481526020019081526020016000206003858154811061093c5761093c6127ef565b906000526020600020906006020160000160405161095a9190612805565b90815260200160405180910390206003015490505b818410156109ef57600860006003868154811061098e5761098e6127ef565b60009182526020808320600560069093020191909101546001600160a01b03168352820192909252604001902054158015906109ca5750600081115b156109dd57826109d981612891565b9350505b836109e781612891565b94505061096f565b60008367ffffffffffffffff811115610a0a57610a0a612418565b604051908082528060200260200182016040528015610a4357816020015b610a3061221f565b815260200190600190039081610a285790505b509050600093505b82851015610c6d576008600060038781548110610a6a57610a6a6127ef565b60009182526020808320600560069093020191909101546001600160a01b0316835282019290925260400190205415801590610aa65750600082115b15610c5b5760038581548110610abe57610abe6127ef565b90600052602060002090600602016040518060c0016040529081600082018054610ae7906127b5565b80601f0160208091040260200160405190810160405280929190818152602001828054610b13906127b5565b8015610b605780601f10610b3557610100808354040283529160200191610b60565b820191906000526020600020905b815481529060010190602001808311610b4357829003601f168201915b5050505050815260200160018201548152602001600282018054610b83906127b5565b80601f0160208091040260200160405190810160405280929190818152602001828054610baf906127b5565b8015610bfc5780601f10610bd157610100808354040283529160200191610bfc565b820191906000526020600020905b815481529060010190602001808311610bdf57829003601f168201915b505050918352505060038201546020820152600482015460408201526005909101546001600160a01b03166060909101528151829086908110610c4157610c416127ef565b60200260200101819052508380610c5790612891565b9450505b84610c6581612891565b955050610a4b565b95945050505050565b336000908152600860205260408120549003610ca557604051634564ea4760e11b815260040160405180910390fd5b336000908152600860205260409020548214610cd457604051631240bfd560e31b815260040160405180910390fd5b6000828152600760205260408082209051610cf0908490612799565b908152604051908190036020019020600501546001600160a01b031603610d2a576040516304f139b560e01b815260040160405180910390fd5b6000610d368383612142565b600354909150808210610d815760405162461bcd60e51b815260206004820152600e60248201526d125d195b481b9bdd08199bdd5b9960921b60448201526064015b60405180910390fd5b6003610d8e6001836128aa565b81548110610d9e57610d9e6127ef565b906000526020600020906006020160038381548110610dbf57610dbf6127ef565b6000918252602090912060069091020180610dda838261290c565b506001820154816001015560028201816002019081610df9919061290c565b5060038281015482820155600480840154908301556005928301549290910180546001600160a01b0319166001600160a01b0390931692909217909155805480610e4557610e456129ed565b60008281526020812060001990920191600683020190610e65828261225e565b6001820160009055600282016000610e7d919061225e565b5060006003820181905560048201819055600590910180546001600160a01b0319169055915584815260076020526040908190209051610ebe908590612799565b9081526040519081900360200190206000610ed9828261225e565b6001820160009055600282016000610ef1919061225e565b5060006003820181905560048201819055600590910180546001600160a01b0319169055338152600b6020526040812090610f2c828261225e565b6001820160009055600282016000610f44919061225e565b50600060038201819055600482015560050180546001600160a01b0319169055604051600690610f75908590612799565b90815260200160405180910390206000610f8f919061229b565b7fe0ad93833f221813aa90a974b345a7c84b0a6919c97eeef8f45ee4fd584a0a618484604051610fc0929190612a03565b60405180910390a150505050565b336000908152600860205260408120549003610ffd57604051634564ea4760e11b815260040160405180910390fd5b336000908152600a60205260409020548061102b5760405163239b3e9360e11b815260040160405180910390fd5b604051600090339083908381818185875af1925050503d806000811461106d576040519150601f19603f3d011682016040523d82523d6000602084013e611072565b606091505b50509050806110b75760405162461bcd60e51b815260206004820152601160248201527015da5d1a191c985dd85b0819985a5b1959607a1b6044820152606401610d78565b5050336000908152600a6020526040812055565b3360009081526008602052604081205481036110fa57604051634564ea4760e11b815260040160405180910390fd5b50336000908152600a602052604090205490565b600081815260076020526040808220905161112a908590612799565b908152604051908190036020019020600501546001600160a01b03160361116457604051632c6c6cb560e01b815260040160405180910390fd5b6000818152600760205260408082209051611180908590612799565b9081526020016040518091039020600101549050803410156111b557604051634ccab62360e11b815260040160405180910390fd5b6000828152600760205260409081902090516111d2908590612799565b90815260200160405180910390206003015460000361120457604051633347ecdf60e11b815260040160405180910390fd5b80600a6000600760008681526020019081526020016000208660405161122a9190612799565b9081526040805160209281900383019020600501546001600160a01b03168352908201929092520160009081208054909190611267908490612a1c565b9091555050600082815260076020526040908190209051611289908590612799565b90815260405190819003602001902060030180549060006112a983612a2f565b9190505550803411156113735760006112c282346128aa565b604051909150600090339083908381818185875af1925050503d8060008114611307576040519150601f19603f3d011682016040523d82523d6000602084013e61130c565b606091505b50509050806113705760405162461bcd60e51b815260206004820152602a60248201527f4661696c656420746f2072657475726e206578636573732066756e647320746f604482015269103a343290313abcb2b960b11b6064820152608401610d78565b50505b336001600160a01b03167f6905b81a1bc0a4bef8543ccaa1f7cc4673b2e1807fe1b0a5ac669ab88d06fbed848460076000878152602001908152602001600020876040516113c19190612799565b908152604051908190036020018120600101546113df939291612a46565b60405180910390a2505050565b60005b6001548110156114585760006001828154811061140e5761140e6127ef565b6000918252602090912001546001600160a01b03169050338103611445576040516367f3b25f60e11b815260040160405180910390fd5b508061145081612891565b9150506113ef565b503360009081526008602052604090205415611487576040516380d3d2c760e01b815260040160405180910390fd5b3360009081526009602052604090205460ff1615156001036114bc5760405163c3d39cab60e01b815260040160405180910390fd5b60018054808201825560009182527fb10e2d527612073b26eecdfd717e6a320cf44b4afac2b0732d9fcbe2b7fa0cf60180546001600160a01b0319163390811790915560405190917f4160979201ad3fd4d2a941879a50dc82fdbded5be3d1f3014bd9895c1e85ea6891a2565b6000828152600760205260408082209051829190611548908590612799565b908152604051908190036020019020600101549150505b92915050565b33600090815260086020526040812054900361159457604051634564ea4760e11b815260040160405180910390fd5b6040805160c081018252868152602080820187905281830186905260608201859052608082018490523360a08301526000848152600790915282902091519091906115e0908890612799565b90815260405190819003602001902080546115fa906127b5565b15905061161a5760405163356e5a1f60e11b815260040160405180910390fd5b33600090815260086020526040902054821461164957604051631240bfd560e31b815260040160405180910390fd5b60038054600181018255600091909152815182916006027fc2575a0e9e593c00f959f8c92f12db2869c3395a3b0502d05e2516446f71f85b0190819061168f9082612a6b565b5060208201516001820155604082015160028201906116ae9082612a6b565b50606082015160038201556080820151600482015560a090910151600590910180546001600160a01b0319166001600160a01b03909216919091179055336000908152600b602052604090208151829190819061170b9082612a6b565b50602082015160018201556040820151600282019061172a9082612a6b565b50606082015181600301556080820151816004015560a08201518160050160006101000a8154816001600160a01b0302191690836001600160a01b0316021790555090505060036006876040516117819190612799565b908152604051908190036020019020815461179c92906122bc565b508060076000848152602001908152602001600020876040516117bf9190612799565b908152604051908190036020019020815181906117dc9082612a6b565b5060208201516001820155604082015160028201906117fb9082612a6b565b50606082015160038201556080820151600482015560a090910151600590910180546001600160a01b0319166001600160a01b0390921691909117905560405133907f8b86e295bd44bce2a33bb2c5b210f6ee966fc6018d867d79ff96703418c6d8679061186c9085908590612b25565b60405180910390a2505050505050565b3360009081526009602052604090205460ff166118ac57604051637490583d60e11b815260040160405180910390fd5b6001600160a01b038116600081815260096020526040808220805460ff191660011790555133917f77b4cef8c6aa03943c44aa2965538e0237cef2c28ece7853bcfa29a43cb35b9f91a350565b600354606090600090815b818110156119a2578460405160200161191d9190612799565b6040516020818303038152906040528051906020012060038281548110611946576119466127ef565b90600052602060002090600602016000016040516020016119679190612805565b6040516020818303038152906040528051906020012003611990578261198c81612891565b9350505b8061199a81612891565b915050611904565b5060008267ffffffffffffffff8111156119be576119be612418565b6040519080825280602002602001820160405280156119f757816020015b6119e461221f565b8152602001906001900390816119dc5790505b5090506000925060005b82811015611c415785604051602001611a1a9190612799565b6040516020818303038152906040528051906020012060038281548110611a4357611a436127ef565b9060005260206000209060060201600001604051602001611a649190612805565b6040516020818303038152906040528051906020012003611c2f5760038181548110611a9257611a926127ef565b90600052602060002090600602016040518060c0016040529081600082018054611abb906127b5565b80601f0160208091040260200160405190810160405280929190818152602001828054611ae7906127b5565b8015611b345780601f10611b0957610100808354040283529160200191611b34565b820191906000526020600020905b815481529060010190602001808311611b1757829003601f168201915b5050505050815260200160018201548152602001600282018054611b57906127b5565b80601f0160208091040260200160405190810160405280929190818152602001828054611b83906127b5565b8015611bd05780601f10611ba557610100808354040283529160200191611bd0565b820191906000526020600020905b815481529060010190602001808311611bb357829003601f168201915b505050918352505060038201546020820152600482015460408201526005909101546001600160a01b03166060909101528251839086908110611c1557611c156127ef565b60200260200101819052508380611c2b90612891565b9450505b80611c3981612891565b915050611a01565b50949350505050565b3360009081526009602052604090205460ff16611c7a57604051637490583d60e11b815260040160405180910390fd5b60005b600154811015611ce457600060018281548110611c9c57611c9c6127ef565b6000918252602090912001546001600160a01b0316905080611cd1576040516367f3b25f60e11b815260040160405180910390fd5b5080611cdc81612891565b915050611c7d565b506001600160a01b03811660009081526008602052604090205415611d1c576040516380d3d2c760e01b815260040160405180910390fd5b6002805460009182611d2d83612891565b90915550336000908152600560209081526040808320805460ff191660019081179091556001600160a01b0387168452600890925282208390555491925090815b81811015611dc757846001600160a01b031660018281548110611d9357611d936127ef565b6000918252602090912001546001600160a01b031603611db557809250611dc7565b80611dbf81612891565b915050611d6e565b50808210611e285760405162461bcd60e51b815260206004820152602860248201527f53656c6c6572206e6f7420666f756e6420696e2070656e64696e6720766572696044820152673334b1b0ba34b7b760c11b6064820152608401610d78565b6001611e3481836128aa565b81548110611e4457611e446127ef565b600091825260209091200154600180546001600160a01b039092169184908110611e7057611e706127ef565b9060005260206000200160006101000a8154816001600160a01b0302191690836001600160a01b031602179055506001805480611eaf57611eaf6129ed565b600082815260209020810160001990810180546001600160a01b03191690550190556040516001600160a01b038516907f0dbaf2b06eb295c49e5507b673fc73bd0ce9d0e4b01149759ebdbcdeb74c7b4990611f0e9086815260200190565b60405180910390a250505050565b611f2461221f565b600083815260076020526040908190209051611f41908490612799565b90815260200160405180910390206040518060c0016040529081600082018054611f6a906127b5565b80601f0160208091040260200160405190810160405280929190818152602001828054611f96906127b5565b8015611fe35780601f10611fb857610100808354040283529160200191611fe3565b820191906000526020600020905b815481529060010190602001808311611fc657829003601f168201915b5050505050815260200160018201548152602001600282018054612006906127b5565b80601f0160208091040260200160405190810160405280929190818152602001828054612032906127b5565b801561207f5780601f106120545761010080835404028352916020019161207f565b820191906000526020600020905b81548152906001019060200180831161206257829003601f168201915b505050918352505060038201546020820152600482015460408201526005909101546001600160a01b03166060909101529392505050565b6120bf61221f565b60035482106121065760405162461bcd60e51b8152602060048201526013602482015272496e646578206f7574206f6620626f756e647360681b6044820152606401610d78565b60038281548110612119576121196127ef565b90600052602060002090600602016040518060c0016040529081600082018054610709906127b5565b600354600090815b81811015612213578460038281548110612166576121666127ef565b9060005260206000209060060201600401541480156121f35750836040516020016121919190612799565b60405160208183030381529060405280519060200120600382815481106121ba576121ba6127ef565b90600052602060002090600602016000016040516020016121db9190612805565b60405160208183030381529060405280519060200120145b1561220157915061155f9050565b8061220b81612891565b91505061214a565b50600019949350505050565b6040518060c00160405280606081526020016000815260200160608152602001600081526020016000815260200160006001600160a01b031681525090565b50805461226a906127b5565b6000825580601f1061227a575050565b601f0160209004906000526020600020908101906122989190612375565b50565b5080546000825560060290600052602060002090810190612298919061238a565b8280548282559060005260206000209060060281019282156123655760005260206000209160060282015b82811115612365578282806122fc838261290c565b50600182015481600101556002820181600201908161231b919061290c565b506003828101549082015560048083015490820155600591820154910180546001600160a01b0319166001600160a01b0390921691909117905560069283019291909101906122e7565b5061237192915061238a565b5090565b5b808211156123715760008155600101612376565b8082111561237157600061239e828261225e565b60018201600090556002820160006123b6919061225e565b5060006003820181905560048201556005810180546001600160a01b031916905560060161238a565b6001600160a01b038116811461229857600080fd5b60006020828403121561240657600080fd5b8135612411816123df565b9392505050565b634e487b7160e01b600052604160045260246000fd5b600082601f83011261243f57600080fd5b813567ffffffffffffffff8082111561245a5761245a612418565b604051601f8301601f19908116603f0116810190828211818310171561248257612482612418565b8160405283815286602085880101111561249b57600080fd5b836020870160208301376000602085830101528094505050505092915050565b6000602082840312156124cd57600080fd5b813567ffffffffffffffff8111156124e457600080fd5b6124f08482850161242e565b949350505050565b60005b838110156125135781810151838201526020016124fb565b50506000910152565b600081518084526125348160208601602086016124f8565b601f01601f19169290920160200192915050565b6000815160c0845261255d60c085018261251c565b90506020830151602085015260408301518482036040860152612580828261251c565b606085810151908701526080808601519087015260a0948501516001600160a01b03169490950193909352509192915050565b6000602080830181845280855180835260408601915060408160051b870101925083870160005b8281101561260857603f198886030184526125f6858351612548565b945092850192908501906001016125da565b5092979650505050505050565b6020815260006124116020830184612548565b6020808252825182820181905260009190848201906040850190845b818110156126695783516001600160a01b031683529284019291840191600101612644565b50909695505050505050565b6000806040838503121561268857600080fd5b82359150602083013567ffffffffffffffff8111156126a657600080fd5b6126b28582860161242e565b9150509250929050565b600080604083850312156126cf57600080fd5b823567ffffffffffffffff8111156126e657600080fd5b6126f28582860161242e565b95602094909401359450505050565b600080600080600060a0868803121561271957600080fd5b853567ffffffffffffffff8082111561273157600080fd5b61273d89838a0161242e565b965060208801359550604088013591508082111561275a57600080fd5b506127678882890161242e565b9598949750949560608101359550608001359392505050565b60006020828403121561279257600080fd5b5035919050565b600082516127ab8184602087016124f8565b9190910192915050565b600181811c908216806127c957607f821691505b6020821081036127e957634e487b7160e01b600052602260045260246000fd5b50919050565b634e487b7160e01b600052603260045260246000fd5b6000808354612813816127b5565b6001828116801561282b57600181146128405761286f565b60ff198416875282151583028701945061286f565b8760005260208060002060005b858110156128665781548a82015290840190820161284d565b50505082870194505b50929695505050505050565b634e487b7160e01b600052601160045260246000fd5b6000600182016128a3576128a361287b565b5060010190565b8181038181111561155f5761155f61287b565b601f82111561290757600081815260208120601f850160051c810160208610156128e45750805b601f850160051c820191505b81811015612903578281556001016128f0565b5050505b505050565b818103612917575050565b61292182546127b5565b67ffffffffffffffff81111561293957612939612418565b61294d8161294784546127b5565b846128bd565b6000601f82116001811461298157600083156129695750848201545b600019600385901b1c1916600184901b1784556129e6565b600085815260209020601f19841690600086815260209020845b838110156129bb578286015482556001958601959091019060200161299b565b50858310156129d95781850154600019600388901b60f8161c191681555b50505060018360011b0184555b5050505050565b634e487b7160e01b600052603160045260246000fd5b8281526040602082015260006124f0604083018461251c565b8082018082111561155f5761155f61287b565b600081612a3e57612a3e61287b565b506000190190565b606081526000612a59606083018661251c565b60208301949094525060400152919050565b815167ffffffffffffffff811115612a8557612a85612418565b612a938161294784546127b5565b602080601f831160018114612ac85760008415612ab05750858301515b600019600386901b1c1916600185901b178555612903565b600085815260208120601f198616915b82811015612af757888601518255948401946001909101908401612ad8565b5085821015612b155787850151600019600388901b60f8161c191681555b5050505050600190811b01905550565b8281526040602082015260006124f0604083018461254856fea2646970667358221220620906eb66583b323b515e65b8256006b537b85b5d099db7df407dc367784a7164736f6c63430008130033","linkReferences":{}},"methodIdentifiers":{"addItem(string,uint256,string,uint256,uint256)":"94bbc030","addNewMarketAuthority(address)":"9c1ce6a2","buyItem(string,uint256)":"891a2f31","deleteItem(uint256,string)":"5339fa16","doesItemBelongToSeller(uint256,string)":"f06e0269","doesSellerHaveID(address)":"687a809e","getAddressesPendingVerification()":"bb333ed2","getAllItems()":"4ba1d6aa","getCurrentMarketAuthority()":"e24cad53","getItemByIndex(uint256)":"fc325efd","getItemPrice(uint256,string)":"94b18875","getItemsByName(string)":"9f3efdf6","getSellerBalance()":"7a9dae96","getSellersItem(address)":"2a7a0fac","getSellersToBeVerified()":"32b695c9","isAddressMarketAuthority(address)":"8dd7f90c","isItemAvailable(string)":"1d38dfa0","isSellerVerified(address)":"377c460d","submitSellerAddress()":"93fc41a1","transferMarketAuthority(address)":"0e277003","verifySellerAddress(address)":"ec0ecfd8","withdrawBalance()":"5fd8c710"},"id":26}