{"abi":[{"type":"constructor","inputs":[],"stateMutability":"nonpayable"},{"type":"function","name":"addItem","inputs":[{"name":"itemName","type":"string","internalType":"string"},{"name":"itemPrice","type":"uint256","internalType":"uint256"},{"name":"itemDescription","type":"string","internalType":"string"},{"name":"itemQuantity","type":"uint256","internalType":"uint256"},{"name":"sellerID","type":"uint256","internalType":"uint256"}],"outputs":[],"stateMutability":"nonpayable"},{"type":"function","name":"addNewMarketAuthority","inputs":[{"name":"_newMarketAuthorityAddress","type":"address","internalType":"address"}],"outputs":[],"stateMutability":"nonpayable"},{"type":"function","name":"buyItem","inputs":[{"name":"itemName","type":"string","internalType":"string"},{"name":"sellerID","type":"uint256","internalType":"uint256"}],"outputs":[],"stateMutability":"payable"},{"type":"function","name":"deleteItem","inputs":[{"name":"sellerID","type":"uint256","internalType":"uint256"},{"name":"itemName","type":"string","internalType":"string"}],"outputs":[],"stateMutability":"nonpayable"},{"type":"function","name":"getAddressesPendingVerification","inputs":[],"outputs":[{"name":"","type":"address[]","internalType":"address[]"}],"stateMutability":"view"},{"type":"function","name":"getAllItems","inputs":[],"outputs":[{"name":"","type":"tuple[]","internalType":"struct Decentralized_Market.Item[]","components":[{"name":"itemName","type":"string","internalType":"string"},{"name":"itemPrice","type":"uint256","internalType":"uint256"},{"name":"itemDescription","type":"string","internalType":"string"},{"name":"itemQuantity","type":"uint256","internalType":"uint256"},{"name":"sellerID","type":"uint256","internalType":"uint256"},{"name":"sellerAddress","type":"address","internalType":"address payable"}]}],"stateMutability":"view"},{"type":"function","name":"getItemByIndex","inputs":[{"name":"index","type":"uint256","internalType":"uint256"}],"outputs":[{"name":"","type":"tuple","internalType":"struct Decentralized_Market.Item","components":[{"name":"itemName","type":"string","internalType":"string"},{"name":"itemPrice","type":"uint256","internalType":"uint256"},{"name":"itemDescription","type":"string","internalType":"string"},{"name":"itemQuantity","type":"uint256","internalType":"uint256"},{"name":"sellerID","type":"uint256","internalType":"uint256"},{"name":"sellerAddress","type":"address","internalType":"address payable"}]}],"stateMutability":"view"},{"type":"function","name":"getItemsByName","inputs":[{"name":"_itemName","type":"string","internalType":"string"}],"outputs":[{"name":"","type":"tuple[]","internalType":"struct Decentralized_Market.Item[]","components":[{"name":"itemName","type":"string","internalType":"string"},{"name":"itemPrice","type":"uint256","internalType":"uint256"},{"name":"itemDescription","type":"string","internalType":"string"},{"name":"itemQuantity","type":"uint256","internalType":"uint256"},{"name":"sellerID","type":"uint256","internalType":"uint256"},{"name":"sellerAddress","type":"address","internalType":"address payable"}]}],"stateMutability":"view"},{"type":"function","name":"getSellerBalance","inputs":[],"outputs":[{"name":"","type":"uint256","internalType":"uint256"}],"stateMutability":"view"},{"type":"function","name":"hasSellerID","inputs":[{"name":"sellerAddress","type":"address","internalType":"address"}],"outputs":[{"name":"sellerID","type":"uint256","internalType":"uint256"}],"stateMutability":"view"},{"type":"function","name":"marketAuthorities","inputs":[{"name":"marketAuthority","type":"address","internalType":"address"}],"outputs":[{"name":"","type":"bool","internalType":"bool"}],"stateMutability":"view"},{"type":"function","name":"marketAuthority","inputs":[],"outputs":[{"name":"","type":"address","internalType":"address"}],"stateMutability":"view"},{"type":"function","name":"sellersItem","inputs":[{"name":"sellerId","type":"uint256","internalType":"uint256"},{"name":"itemName","type":"string","internalType":"string"}],"outputs":[{"name":"itemName","type":"string","internalType":"string"},{"name":"itemPrice","type":"uint256","internalType":"uint256"},{"name":"itemDescription","type":"string","internalType":"string"},{"name":"itemQuantity","type":"uint256","internalType":"uint256"},{"name":"sellerID","type":"uint256","internalType":"uint256"},{"name":"sellerAddress","type":"address","internalType":"address payable"}],"stateMutability":"view"},{"type":"function","name":"submitSellerAddress","inputs":[],"outputs":[],"stateMutability":"nonpayable"},{"type":"function","name":"transferMarketAuthority","inputs":[{"name":"_newMarketAuthorityAddress","type":"address","internalType":"address"}],"outputs":[],"stateMutability":"nonpayable"},{"type":"function","name":"verifySellerAddress","inputs":[{"name":"sellerAddress","type":"address","internalType":"address payable"}],"outputs":[],"stateMutability":"nonpayable"},{"type":"function","name":"withdrawBalance","inputs":[],"outputs":[],"stateMutability":"payable"},{"type":"event","name":"FormerMarketAuthorityDeleted","inputs":[{"name":"formerMarketAuthority","type":"address","indexed":true,"internalType":"address"}],"anonymous":false},{"type":"event","name":"ItemAdded","inputs":[{"name":"Seller","type":"address","indexed":true,"internalType":"address"},{"name":"sellerID","type":"uint256","indexed":false,"internalType":"uint256"},{"name":"","type":"tuple","indexed":false,"internalType":"struct Decentralized_Market.Item","components":[{"name":"itemName","type":"string","internalType":"string"},{"name":"itemPrice","type":"uint256","internalType":"uint256"},{"name":"itemDescription","type":"string","internalType":"string"},{"name":"itemQuantity","type":"uint256","internalType":"uint256"},{"name":"sellerID","type":"uint256","internalType":"uint256"},{"name":"sellerAddress","type":"address","internalType":"address payable"}]}],"anonymous":false},{"type":"event","name":"ItemDeleted","inputs":[{"name":"sellerID","type":"uint256","indexed":false,"internalType":"uint256"},{"name":"itemName","type":"string","indexed":false,"internalType":"string"}],"anonymous":false},{"type":"event","name":"ItemPurchased","inputs":[{"name":"Buyer","type":"address","indexed":true,"internalType":"address"},{"name":"itemName","type":"string","indexed":false,"internalType":"string"},{"name":"sellerID","type":"uint256","indexed":false,"internalType":"uint256"},{"name":"itemPrice","type":"uint256","indexed":false,"internalType":"uint256"}],"anonymous":false},{"type":"event","name":"MarketAuthorityTransferred","inputs":[{"name":"transferredFrom","type":"address","indexed":true,"internalType":"address"},{"name":"transferredTo","type":"address","indexed":true,"internalType":"address"}],"anonymous":false},{"type":"event","name":"NewMarketAuthorityAdded","inputs":[{"name":"addedBy","type":"address","indexed":true,"internalType":"address"},{"name":"_newMarketAuthorityAddress","type":"address","indexed":true,"internalType":"address"}],"anonymous":false},{"type":"event","name":"SellerAddressSubmitted","inputs":[{"name":"sellerAddress","type":"address","indexed":true,"internalType":"address"}],"anonymous":false},{"type":"event","name":"SellerVerified","inputs":[{"name":"sellerAddress","type":"address","indexed":true,"internalType":"address"},{"name":"sellerID","type":"uint256","indexed":false,"internalType":"uint256"}],"anonymous":false},{"type":"error","name":"Insufficient_Amount","inputs":[]},{"type":"error","name":"Invalid_Item","inputs":[]},{"type":"error","name":"Invalid_SellerID","inputs":[]},{"type":"error","name":"Item_Already_Exist","inputs":[]},{"type":"error","name":"No_balance_to_withdraw","inputs":[]},{"type":"error","name":"Not_Market_Authority","inputs":[]},{"type":"error","name":"Not_Seller","inputs":[]},{"type":"error","name":"Out_Of_Stock","inputs":[]},{"type":"error","name":"Seller_Address_Already_Submitted","inputs":[]},{"type":"error","name":"Seller_Address_Not_Submitted","inputs":[]},{"type":"error","name":"Seller_Has_ID","inputs":[]}],"bytecode":{"object":"0x6080604052600160025534801561001557600080fd5b50600080546001600160a01b0319163390811782558152600860205260409020805460ff191660011790556126aa8061004f6000396000f3fe6080604052600436106100fe5760003560e01c806394bbc03011610095578063aba74d6911610064578063aba74d6914610295578063bb333ed2146102cd578063d0a911ba146102ef578063ec0ecfd81461031c578063fc325efd1461033c57600080fd5b806394bbc030146101f55780639c1ce6a2146102155780639d1a54af146102355780639f3efdf61461027557600080fd5b80635fd8c710116100d15780635fd8c710146101a25780637a9dae96146101aa578063891a2f31146101cd57806393fc41a1146101e057600080fd5b80630e277003146101035780634ba1d6aa146101255780635339fa16146101505780635d201ac014610170575b600080fd5b34801561010f57600080fd5b5061012361011e366004611ec0565b610369565b005b34801561013157600080fd5b5061013a610437565b6040516101479190611f9f565b60405180910390f35b34801561015c57600080fd5b5061012361016b3660046120a4565b61083b565b34801561017c57600080fd5b5061019061018b3660046120a4565b610b17565b604051610147969594939291906120eb565b610123610c82565b3480156101b657600080fd5b506101bf610d7f565b604051908152602001610147565b6101236101db36600461213e565b610dc2565b3480156101ec57600080fd5b506101236110ce565b34801561020157600080fd5b50610123610210366004612183565b611180565b34801561022157600080fd5b50610123610230366004611ec0565b611475565b34801561024157600080fd5b50610265610250366004611ec0565b60086020526000908152604090205460ff1681565b6040519015158152602001610147565b34801561028157600080fd5b5061013a610290366004612202565b6114f2565b3480156102a157600080fd5b506000546102b5906001600160a01b031681565b6040516001600160a01b039091168152602001610147565b3480156102d957600080fd5b506102e2611841565b604051610147919061223f565b3480156102fb57600080fd5b506101bf61030a366004611ec0565b60076020526000908152604090205481565b34801561032857600080fd5b50610123610337366004611ec0565b6118d4565b34801561034857600080fd5b5061035c61035736600461228c565b611b65565b60405161014791906122a5565b3360009081526008602052604090205460ff1661039957604051637490583d60e11b815260040160405180910390fd5b600080546001600160a01b0319166001600160a01b038316908117825580825260086020526040808320805460ff1916600117905551909133917f45d40c5b0744a0416010da361e8d390ec9fa7cc857a6d6a7eb76542d97dd11cb9190a333600081815260086020526040808220805460ff19169055517f10bb2bb94bcaf23e23658fa243d9a48ac9c37c0d66fa3918326d4995bdb773299190a250565b60606000805b60035481101561053857600760006003838154811061045e5761045e6122b8565b60009182526020808320600560069093020191909101546001600160a01b03168352820192909252604001902054158015906105135750600060066000600384815481106104ae576104ae6122b8565b9060005260206000209060060201600401548152602001908152602001600020600383815481106104e1576104e16122b8565b90600052602060002090600602016000016040516104ff9190612308565b908152602001604051809103902060030154115b15610526578161052281612394565b9250505b8061053081612394565b91505061043d565b5060008167ffffffffffffffff81111561055457610554612001565b60405190808252806020026020018201604052801561058d57816020015b61057a611e16565b8152602001906001900390816105725790505b5090506000915060005b6003548110156108345760076000600383815481106105b8576105b86122b8565b60009182526020808320600560069093020191909101546001600160a01b031683528201929092526040019020541580159061066d575060006006600060038481548110610608576106086122b8565b90600052602060002090600602016004015481526020019081526020016000206003838154811061063b5761063b6122b8565b90600052602060002090600602016000016040516106599190612308565b908152602001604051809103902060030154115b156108225760038181548110610685576106856122b8565b90600052602060002090600602016040518060c00160405290816000820180546106ae906122ce565b80601f01602080910402602001604051908101604052809291908181526020018280546106da906122ce565b80156107275780601f106106fc57610100808354040283529160200191610727565b820191906000526020600020905b81548152906001019060200180831161070a57829003601f168201915b505050505081526020016001820154815260200160028201805461074a906122ce565b80601f0160208091040260200160405190810160405280929190818152602001828054610776906122ce565b80156107c35780601f10610798576101008083540402835291602001916107c3565b820191906000526020600020905b8154815290600101906020018083116107a657829003601f168201915b505050918352505060038201546020820152600482015460408201526005909101546001600160a01b03166060909101528251839085908110610808576108086122b8565b6020026020010181905250828061081e90612394565b9350505b8061082c81612394565b915050610597565b5092915050565b33600090815260076020526040812054900361086a57604051634564ea4760e11b815260040160405180910390fd5b33600090815260076020526040902054821461089957604051631240bfd560e31b815260040160405180910390fd5b60008281526006602052604080822090516108b59084906123ad565b908152604051908190036020019020600501546001600160a01b0316036108ef576040516304f139b560e01b815260040160405180910390fd5b60006108fb8383611d3c565b60035490915081106109455760405162461bcd60e51b815260206004820152600e60248201526d125d195b481b9bdd08199bdd5b9960921b60448201526064015b60405180910390fd5b60038054610955906001906123c9565b81548110610965576109656122b8565b906000526020600020906006020160038281548110610986576109866122b8565b60009182526020909120600690910201806109a1838261242b565b5060018201548160010155600282018160020190816109c0919061242b565b5060038281015482820155600480840154908301556005928301549290910180546001600160a01b0319166001600160a01b0390931692909217909155805480610a0c57610a0c61250c565b60008281526020812060001990920191600683020190610a2c8282611e55565b6001820160009055600282016000610a449190611e55565b5060006003820181905560048201819055600590910180546001600160a01b0319169055915583815260066020526040908190209051610a859084906123ad565b9081526040519081900360200190206000610aa08282611e55565b6001820160009055600282016000610ab89190611e55565b50600060038201819055600482015560050180546001600160a01b03191690556040517fe0ad93833f221813aa90a974b345a7c84b0a6919c97eeef8f45ee4fd584a0a6190610b0a9085908590612522565b60405180910390a1505050565b60066020908152600092835260409092208151808301840180519281529084019290930191909120915280548190610b4e906122ce565b80601f0160208091040260200160405190810160405280929190818152602001828054610b7a906122ce565b8015610bc75780601f10610b9c57610100808354040283529160200191610bc7565b820191906000526020600020905b815481529060010190602001808311610baa57829003601f168201915b505050505090806001015490806002018054610be2906122ce565b80601f0160208091040260200160405190810160405280929190818152602001828054610c0e906122ce565b8015610c5b5780601f10610c3057610100808354040283529160200191610c5b565b820191906000526020600020905b815481529060010190602001808311610c3e57829003601f168201915b5050505060038301546004840154600590940154929390929091506001600160a01b031686565b336000908152600760205260408120549003610cb157604051634564ea4760e11b815260040160405180910390fd5b3360009081526009602052604090205480610cdf5760405163239b3e9360e11b815260040160405180910390fd5b604051600090339083908381818185875af1925050503d8060008114610d21576040519150601f19603f3d011682016040523d82523d6000602084013e610d26565b606091505b5050905080610d6b5760405162461bcd60e51b815260206004820152601160248201527015da5d1a191c985dd85b0819985a5b1959607a1b604482015260640161093c565b505033600090815260096020526040812055565b336000908152600760205260408120548103610dae57604051634564ea4760e11b815260040160405180910390fd5b503360009081526009602052604090205490565b6000818152600660205260408082209051610dde9085906123ad565b908152604051908190036020019020600501546001600160a01b031603610e18576040516304f139b560e01b815260040160405180910390fd5b6000818152600660205260408082209051610e349085906123ad565b908152602001604051809103902060010154905080341015610e6957604051634ccab62360e11b815260040160405180910390fd5b600082815260066020526040908190209051610e869085906123ad565b908152602001604051809103902060030154600003610eb85760405163ea0e728b60e01b815260040160405180910390fd5b600082815260066020526040908190209051610ed59085906123ad565b908152602001604051809103902060010154600960006006600086815260200190815260200160002086604051610f0c91906123ad565b9081526040805160209281900383019020600501546001600160a01b03168352908201929092520160009081208054909190610f4990849061253b565b9091555050600082815260066020526040908190209051610f6b9085906123ad565b9081526040519081900360200190206003018054906000610f8b8361254e565b919050555080341115611055576000610fa482346123c9565b604051909150600090339083908381818185875af1925050503d8060008114610fe9576040519150601f19603f3d011682016040523d82523d6000602084013e610fee565b606091505b50509050806110525760405162461bcd60e51b815260206004820152602a60248201527f4661696c656420746f2072657475726e206578636573732066756e647320746f604482015269103a343290313abcb2b960b11b606482015260840161093c565b50505b336001600160a01b03167f6905b81a1bc0a4bef8543ccaa1f7cc4673b2e1807fe1b0a5ac669ab88d06fbed848460066000878152602001908152602001600020876040516110a391906123ad565b908152604051908190036020018120600101546110c1939291612565565b60405180910390a2505050565b3360009081526004602052604090205460ff16156110ff576040516367f3b25f60e11b815260040160405180910390fd5b33600081815260046020526040808220805460ff19166001908117909155805480820182559083527fb10e2d527612073b26eecdfd717e6a320cf44b4afac2b0732d9fcbe2b7fa0cf60180546001600160a01b03191684179055517f4160979201ad3fd4d2a941879a50dc82fdbded5be3d1f3014bd9895c1e85ea689190a2565b3360009081526007602052604081205490036111af57604051634564ea4760e11b815260040160405180910390fd5b60006111c385670de0b6b3a764000061258a565b6040805160c081018252888152602080820184905281830188905260608201879052608082018690523360a0830152600086815260069091528290209151929350916112109089906123ad565b908152604051908190036020019020805461122a906122ce565b15905061124a5760405163356e5a1f60e11b815260040160405180910390fd5b33600090815260076020526040902054831461127957604051631240bfd560e31b815260040160405180910390fd5b60038054600181018255600091909152815182916006027fc2575a0e9e593c00f959f8c92f12db2869c3395a3b0502d05e2516446f71f85b019081906112bf90826125a1565b5060208201516001820155604082015160028201906112de90826125a1565b50606082015160038201556080820151600482015560a090910151600590910180546001600160a01b0319166001600160a01b03909216919091179055336000908152600a602052604090208151829190819061133b90826125a1565b50602082015160018201556040820151600282019061135a90826125a1565b50606082015160038201556080820151600482015560a090910151600590910180546001600160a01b0319166001600160a01b039092169190911790556000838152600660205260409081902090518291906113b7908a906123ad565b908152604051908190036020019020815181906113d490826125a1565b5060208201516001820155604082015160028201906113f390826125a1565b50606082015160038201556080820151600482015560a090910151600590910180546001600160a01b0319166001600160a01b0390921691909117905560405133907f8b86e295bd44bce2a33bb2c5b210f6ee966fc6018d867d79ff96703418c6d86790611464908690859061265b565b60405180910390a250505050505050565b3360009081526008602052604090205460ff166114a557604051637490583d60e11b815260040160405180910390fd5b6001600160a01b038116600081815260086020526040808220805460ff191660011790555133917f77b4cef8c6aa03943c44aa2965538e0237cef2c28ece7853bcfa29a43cb35b9f91a350565b60606000805b600354811015611598578360405160200161151391906123ad565b604051602081830303815290604052805190602001206003828154811061153c5761153c6122b8565b906000526020600020906006020160000160405160200161155d9190612308565b6040516020818303038152906040528051906020012003611586578161158281612394565b9250505b8061159081612394565b9150506114f8565b5060008167ffffffffffffffff8111156115b4576115b4612001565b6040519080825280602002602001820160405280156115ed57816020015b6115da611e16565b8152602001906001900390816115d25790505b5090506000915060005b600354811015611839578460405160200161161291906123ad565b604051602081830303815290604052805190602001206003828154811061163b5761163b6122b8565b906000526020600020906006020160000160405160200161165c9190612308565b6040516020818303038152906040528051906020012003611827576003818154811061168a5761168a6122b8565b90600052602060002090600602016040518060c00160405290816000820180546116b3906122ce565b80601f01602080910402602001604051908101604052809291908181526020018280546116df906122ce565b801561172c5780601f106117015761010080835404028352916020019161172c565b820191906000526020600020905b81548152906001019060200180831161170f57829003601f168201915b505050505081526020016001820154815260200160028201805461174f906122ce565b80601f016020809104026020016040519081016040528092919081815260200182805461177b906122ce565b80156117c85780601f1061179d576101008083540402835291602001916117c8565b820191906000526020600020905b8154815290600101906020018083116117ab57829003601f168201915b505050918352505060038201546020820152600482015460408201526005909101546001600160a01b0316606090910152825183908590811061180d5761180d6122b8565b6020026020010181905250828061182390612394565b9350505b8061183181612394565b9150506115f7565b509392505050565b3360009081526008602052604090205460609060ff1661187457604051637490583d60e11b815260040160405180910390fd5b60018054806020026020016040519081016040528092919081815260200182805480156118ca57602002820191906000526020600020905b81546001600160a01b031681526001909101906020018083116118ac575b5050505050905090565b3360009081526008602052604090205460ff1661190457604051637490583d60e11b815260040160405180910390fd5b6001600160a01b03811660009081526004602052604090205460ff1661193d57604051630f83385b60e31b815260040160405180910390fd5b6001600160a01b03811660009081526007602052604090205415611974576040516380d3d2c760e01b815260040160405180910390fd5b600280546000918261198583612394565b90915550336000908152600460209081526040808320805460ff191690556001600160a01b038616835260079091528120829055909150805b600154811015611a1957836001600160a01b0316600182815481106119e5576119e56122b8565b6000918252602090912001546001600160a01b031603611a0757809150611a19565b80611a1181612394565b9150506119be565b506001548110611a7c5760405162461bcd60e51b815260206004820152602860248201527f53656c6c6572206e6f7420666f756e6420696e2070656e64696e6720766572696044820152673334b1b0ba34b7b760c11b606482015260840161093c565b60018054611a8b9082906123c9565b81548110611a9b57611a9b6122b8565b600091825260209091200154600180546001600160a01b039092169183908110611ac757611ac76122b8565b9060005260206000200160006101000a8154816001600160a01b0302191690836001600160a01b031602179055506001805480611b0657611b0661250c565b600082815260209020810160001990810180546001600160a01b03191690550190556040516001600160a01b038416907f0dbaf2b06eb295c49e5507b673fc73bd0ce9d0e4b01149759ebdbcdeb74c7b49906110c19085815260200190565b611b6d611e16565b6003548210611bb45760405162461bcd60e51b8152602060048201526013602482015272496e646578206f7574206f6620626f756e647360681b604482015260640161093c565b60038281548110611bc757611bc76122b8565b90600052602060002090600602016040518060c0016040529081600082018054611bf0906122ce565b80601f0160208091040260200160405190810160405280929190818152602001828054611c1c906122ce565b8015611c695780601f10611c3e57610100808354040283529160200191611c69565b820191906000526020600020905b815481529060010190602001808311611c4c57829003601f168201915b5050505050815260200160018201548152602001600282018054611c8c906122ce565b80601f0160208091040260200160405190810160405280929190818152602001828054611cb8906122ce565b8015611d055780601f10611cda57610100808354040283529160200191611d05565b820191906000526020600020905b815481529060010190602001808311611ce857829003601f168201915b505050918352505060038201546020820152600482015460408201526005909101546001600160a01b031660609091015292915050565b6000805b600354811015611e09578360038281548110611d5e57611d5e6122b8565b906000526020600020906006020160040154148015611deb575082604051602001611d8991906123ad565b6040516020818303038152906040528051906020012060038281548110611db257611db26122b8565b9060005260206000209060060201600001604051602001611dd39190612308565b60405160208183030381529060405280519060200120145b15611df7579050611e10565b80611e0181612394565b915050611d40565b5060001990505b92915050565b6040518060c00160405280606081526020016000815260200160608152602001600081526020016000815260200160006001600160a01b031681525090565b508054611e61906122ce565b6000825580601f10611e71575050565b601f016020900490600052602060002090810190611e8f9190611e92565b50565b5b80821115611ea75760008155600101611e93565b5090565b6001600160a01b0381168114611e8f57600080fd5b600060208284031215611ed257600080fd5b8135611edd81611eab565b9392505050565b60005b83811015611eff578181015183820152602001611ee7565b50506000910152565b60008151808452611f20816020860160208601611ee4565b601f01601f19169290920160200192915050565b6000815160c08452611f4960c0850182611f08565b90506020830151602085015260408301518482036040860152611f6c8282611f08565b606085810151908701526080808601519087015260a0948501516001600160a01b03169490950193909352509192915050565b6000602080830181845280855180835260408601915060408160051b870101925083870160005b82811015611ff457603f19888603018452611fe2858351611f34565b94509285019290850190600101611fc6565b5092979650505050505050565b634e487b7160e01b600052604160045260246000fd5b600082601f83011261202857600080fd5b813567ffffffffffffffff8082111561204357612043612001565b604051601f8301601f19908116603f0116810190828211818310171561206b5761206b612001565b8160405283815286602085880101111561208457600080fd5b836020870160208301376000602085830101528094505050505092915050565b600080604083850312156120b757600080fd5b82359150602083013567ffffffffffffffff8111156120d557600080fd5b6120e185828601612017565b9150509250929050565b60c0815260006120fe60c0830189611f08565b87602084015282810360408401526121168188611f08565b6060840196909652505060808101929092526001600160a01b031660a0909101529392505050565b6000806040838503121561215157600080fd5b823567ffffffffffffffff81111561216857600080fd5b61217485828601612017565b95602094909401359450505050565b600080600080600060a0868803121561219b57600080fd5b853567ffffffffffffffff808211156121b357600080fd5b6121bf89838a01612017565b96506020880135955060408801359150808211156121dc57600080fd5b506121e988828901612017565b9598949750949560608101359550608001359392505050565b60006020828403121561221457600080fd5b813567ffffffffffffffff81111561222b57600080fd5b61223784828501612017565b949350505050565b6020808252825182820181905260009190848201906040850190845b818110156122805783516001600160a01b03168352928401929184019160010161225b565b50909695505050505050565b60006020828403121561229e57600080fd5b5035919050565b602081526000611edd6020830184611f34565b634e487b7160e01b600052603260045260246000fd5b600181811c908216806122e257607f821691505b60208210810361230257634e487b7160e01b600052602260045260246000fd5b50919050565b6000808354612316816122ce565b6001828116801561232e576001811461234357612372565b60ff1984168752821515830287019450612372565b8760005260208060002060005b858110156123695781548a820152908401908201612350565b50505082870194505b50929695505050505050565b634e487b7160e01b600052601160045260246000fd5b6000600182016123a6576123a661237e565b5060010190565b600082516123bf818460208701611ee4565b9190910192915050565b81810381811115611e1057611e1061237e565b601f82111561242657600081815260208120601f850160051c810160208610156124035750805b601f850160051c820191505b818110156124225782815560010161240f565b5050505b505050565b818103612436575050565b61244082546122ce565b67ffffffffffffffff81111561245857612458612001565b61246c8161246684546122ce565b846123dc565b6000601f8211600181146124a057600083156124885750848201545b600019600385901b1c1916600184901b178455612505565b600085815260209020601f19841690600086815260209020845b838110156124da57828601548255600195860195909101906020016124ba565b50858310156124f85781850154600019600388901b60f8161c191681555b50505060018360011b0184555b5050505050565b634e487b7160e01b600052603160045260246000fd5b8281526040602082015260006122376040830184611f08565b80820180821115611e1057611e1061237e565b60008161255d5761255d61237e565b506000190190565b6060815260006125786060830186611f08565b60208301949094525060400152919050565b8082028115828204841417611e1057611e1061237e565b815167ffffffffffffffff8111156125bb576125bb612001565b6125c98161246684546122ce565b602080601f8311600181146125fe57600084156125e65750858301515b600019600386901b1c1916600185901b178555612422565b600085815260208120601f198616915b8281101561262d5788860151825594840194600190910190840161260e565b508582101561264b5787850151600019600388901b60f8161c191681555b5050505050600190811b01905550565b8281526040602082015260006122376040830184611f3456fea2646970667358221220d3b4209b4b928e69f4ab765b59c650d0f637b0129c15593e153c39399b310e8764736f6c63430008130033","linkReferences":{}},"methodIdentifiers":{"addItem(string,uint256,string,uint256,uint256)":"94bbc030","addNewMarketAuthority(address)":"9c1ce6a2","buyItem(string,uint256)":"891a2f31","deleteItem(uint256,string)":"5339fa16","getAddressesPendingVerification()":"bb333ed2","getAllItems()":"4ba1d6aa","getItemByIndex(uint256)":"fc325efd","getItemsByName(string)":"9f3efdf6","getSellerBalance()":"7a9dae96","hasSellerID(address)":"d0a911ba","marketAuthorities(address)":"9d1a54af","marketAuthority()":"aba74d69","sellersItem(uint256,string)":"5d201ac0","submitSellerAddress()":"93fc41a1","transferMarketAuthority(address)":"0e277003","verifySellerAddress(address)":"ec0ecfd8","withdrawBalance()":"5fd8c710"},"id":17}